{
  "_format": "hh-sol-artifact-1",
  "contractName": "StudentSocietyDAO",
  "sourceName": "contracts/StudentSocietyDAO.sol",
  "abi": [
    {
      "inputs": [],
      "stateMutability": "nonpayable",
      "type": "constructor"
    },
    {
      "anonymous": false,
      "inputs": [
        {
          "indexed": false,
          "internalType": "uint32",
          "name": "proposalIndex",
          "type": "uint32"
        }
      ],
      "name": "ProposalInitiated",
      "type": "event"
    },
    {
      "inputs": [],
      "name": "Index",
      "outputs": [
        {
          "internalType": "uint32",
          "name": "",
          "type": "uint32"
        }
      ],
      "stateMutability": "view",
      "type": "function"
    },
    {
      "inputs": [],
      "name": "ProposalDuration",
      "outputs": [
        {
          "internalType": "uint32",
          "name": "",
          "type": "uint32"
        }
      ],
      "stateMutability": "view",
      "type": "function"
    },
    {
      "inputs": [],
      "name": "ProposalGenerateAmount",
      "outputs": [
        {
          "internalType": "uint32",
          "name": "",
          "type": "uint32"
        }
      ],
      "stateMutability": "view",
      "type": "function"
    },
    {
      "inputs": [
        {
          "internalType": "uint32",
          "name": "index",
          "type": "uint32"
        }
      ],
      "name": "ReceiveReward",
      "outputs": [],
      "stateMutability": "payable",
      "type": "function"
    },
    {
      "inputs": [],
      "name": "VoteAmount",
      "outputs": [
        {
          "internalType": "uint32",
          "name": "",
          "type": "uint32"
        }
      ],
      "stateMutability": "view",
      "type": "function"
    },
    {
      "inputs": [
        {
          "internalType": "string",
          "name": "proposalname",
          "type": "string"
        }
      ],
      "name": "generateproposal",
      "outputs": [],
      "stateMutability": "payable",
      "type": "function"
    },
    {
      "inputs": [],
      "name": "getindex",
      "outputs": [
        {
          "internalType": "uint32",
          "name": "index",
          "type": "uint32"
        }
      ],
      "stateMutability": "view",
      "type": "function"
    },
    {
      "inputs": [
        {
          "internalType": "uint32",
          "name": "index",
          "type": "uint32"
        }
      ],
      "name": "getproposalname",
      "outputs": [
        {
          "internalType": "string",
          "name": "name",
          "type": "string"
        }
      ],
      "stateMutability": "view",
      "type": "function"
    },
    {
      "inputs": [
        {
          "internalType": "uint32",
          "name": "index",
          "type": "uint32"
        }
      ],
      "name": "getproposalstatus",
      "outputs": [
        {
          "internalType": "uint32",
          "name": "agree",
          "type": "uint32"
        },
        {
          "internalType": "uint32",
          "name": "disagree",
          "type": "uint32"
        },
        {
          "internalType": "bool",
          "name": "voteAvailable",
          "type": "bool"
        },
        {
          "internalType": "bool",
          "name": "ClaimAvailable",
          "type": "bool"
        },
        {
          "internalType": "bool",
          "name": "sendervoted",
          "type": "bool"
        }
      ],
      "stateMutability": "view",
      "type": "function"
    },
    {
      "inputs": [],
      "name": "myERC20",
      "outputs": [
        {
          "internalType": "contract MyERC20",
          "name": "",
          "type": "address"
        }
      ],
      "stateMutability": "view",
      "type": "function"
    },
    {
      "inputs": [
        {
          "internalType": "uint32",
          "name": "index",
          "type": "uint32"
        },
        {
          "internalType": "bool",
          "name": "Vote",
          "type": "bool"
        }
      ],
      "name": "vote",
      "outputs": [],
      "stateMutability": "payable",
      "type": "function"
    }
  ],
  "bytecode": "0x60806040526001600560006101000a81548163ffffffff021916908363ffffffff1602179055503480156200003357600080fd5b506040516200004290620000b0565b6200004d906200016f565b604051809103906000f0801580156200006a573d6000803e3d6000fd5b506000806101000a81548173ffffffffffffffffffffffffffffffffffffffff021916908373ffffffffffffffffffffffffffffffffffffffff160217905550620001a6565b611a1d8062001c0983390190565b600082825260208201905092915050565b7f5a4a55546f6b656e000000000000000000000000000000000000000000000000600082015250565b600062000107600883620000be565b91506200011482620000cf565b602082019050919050565b7f5a4a55546f6b656e53796d626f6c000000000000000000000000000000000000600082015250565b600062000157600e83620000be565b915062000164826200011f565b602082019050919050565b600060408201905081810360008301526200018a81620000f8565b905081810360208301526200019f8162000148565b9050919050565b611a5380620001b66000396000f3fe60806040526004361061009c5760003560e01c806377cfd5511161006457806377cfd5511461015a578063879647e214610176578063ad32016c146101a1578063af512359146101cc578063b7751a8e1461020d578063d356d9d4146102385761009c565b806306ab9c92146100a157806314f3c5be146100cc5780634605c1d4146100e85780635ace4d96146101045780636d3739c41461012f575b600080fd5b3480156100ad57600080fd5b506100b6610275565b6040516100c391906111b9565b60405180910390f35b6100e660048036038101906100e1919061132e565b61027b565b005b61010260048036038101906100fd91906113a3565b6105df565b005b34801561011057600080fd5b506101196107f6565b60405161012691906111b9565b60405180910390f35b34801561013b57600080fd5b5061014461080c565b604051610151919061144f565b60405180910390f35b610174600480360381019061016f91906114a2565b610830565b005b34801561018257600080fd5b5061018b610bd0565b60405161019891906111b9565b60405180910390f35b3480156101ad57600080fd5b506101b6610bf6565b6040516101c391906111b9565b60405180910390f35b3480156101d857600080fd5b506101f360048036038101906101ee91906113a3565b610bfb565b6040516102049594939291906114f1565b60405180910390f35b34801561021957600080fd5b50610222610f58565b60405161022f91906111b9565b60405180910390f35b34801561024457600080fd5b5061025f600480360381019061025a91906113a3565b610f5d565b60405161026c91906115cc565b60405180910390f35b6103e881565b60008054906101000a900473ffffffffffffffffffffffffffffffffffffffff1673ffffffffffffffffffffffffffffffffffffffff166323b872dd33306103e86040518463ffffffff1660e01b81526004016102da9392919061164a565b602060405180830381600087803b1580156102f457600080fd5b505af1158015610308573d6000803e3d6000fd5b505050506040513d601f19601f8201168201806040525081019061032c9190611696565b50610335611084565b600560009054906101000a900463ffffffff16816000019063ffffffff16908163ffffffff168152505033816020019073ffffffffffffffffffffffffffffffffffffffff16908173ffffffffffffffffffffffffffffffffffffffff168152505042816040018181525050603c63ffffffff1681606001818152505081816080018190525060008160a0019063ffffffff16908163ffffffff168152505060008160c0019063ffffffff16908163ffffffff16815250506103e88160e0019063ffffffff16908163ffffffff1681525050600160026000600560009054906101000a900463ffffffff1663ffffffff1663ffffffff16815260200190815260200160002060006101000a81548160ff0219169083151502179055508060016000600560009054906101000a900463ffffffff1663ffffffff1663ffffffff16815260200190815260200160002060008201518160000160006101000a81548163ffffffff021916908363ffffffff16021790555060208201518160000160046101000a81548173ffffffffffffffffffffffffffffffffffffffff021916908373ffffffffffffffffffffffffffffffffffffffff160217905550604082015181600101556060820151816002015560808201518160030190805190602001906105219291906110f7565b5060a08201518160040160006101000a81548163ffffffff021916908363ffffffff16021790555060c08201518160040160046101000a81548163ffffffff021916908363ffffffff16021790555060e08201518160040160086101000a81548163ffffffff021916908363ffffffff1602179055509050506005600081819054906101000a900463ffffffff16809291906105bc906116f2565b91906101000a81548163ffffffff021916908363ffffffff160217905550505050565b600160008263ffffffff1663ffffffff16815260200190815260200160002060000160049054906101000a900473ffffffffffffffffffffffffffffffffffffffff1673ffffffffffffffffffffffffffffffffffffffff163373ffffffffffffffffffffffffffffffffffffffff161461068f576040517f08c379a00000000000000000000000000000000000000000000000000000000081526004016106869061176b565b60405180910390fd5b60008054906101000a900473ffffffffffffffffffffffffffffffffffffffff1673ffffffffffffffffffffffffffffffffffffffff1663a9059cbb600160008463ffffffff1663ffffffff16815260200190815260200160002060000160049054906101000a900473ffffffffffffffffffffffffffffffffffffffff16600160008563ffffffff1663ffffffff16815260200190815260200160002060040160089054906101000a900463ffffffff166040518363ffffffff1660e01b815260040161075e92919061178b565b602060405180830381600087803b15801561077857600080fd5b505af115801561078c573d6000803e3d6000fd5b505050506040513d601f19601f820116820180604052508101906107b09190611696565b506000600160008363ffffffff1663ffffffff16815260200190815260200160002060040160086101000a81548163ffffffff021916908363ffffffff16021790555050565b600560009054906101000a900463ffffffff1681565b60008054906101000a900473ffffffffffffffffffffffffffffffffffffffff1681565b60001515600360003373ffffffffffffffffffffffffffffffffffffffff1673ffffffffffffffffffffffffffffffffffffffff16815260200190815260200160002060008463ffffffff1663ffffffff16815260200190815260200160002060009054906101000a900460ff161515146108e0576040517f08c379a00000000000000000000000000000000000000000000000000000000081526004016108d790611800565b60405180910390fd5b600160008363ffffffff1663ffffffff16815260200190815260200160002060020154600160008463ffffffff1663ffffffff168152602001908152602001600020600101546109309190611820565b4210610971576040517f08c379a0000000000000000000000000000000000000000000000000000000008152600401610968906118c2565b60405180910390fd5b60008054906101000a900473ffffffffffffffffffffffffffffffffffffffff1673ffffffffffffffffffffffffffffffffffffffff166323b872dd3330600a6040518463ffffffff1660e01b81526004016109cf9392919061164a565b602060405180830381600087803b1580156109e957600080fd5b505af11580156109fd573d6000803e3d6000fd5b505050506040513d601f19601f82011682018060405250810190610a219190611696565b50600115158115151415610a9557600160008363ffffffff1663ffffffff168152602001908152602001600020600401600081819054906101000a900463ffffffff1680929190610a71906116f2565b91906101000a81548163ffffffff021916908363ffffffff16021790555050610af7565b600160008363ffffffff1663ffffffff168152602001908152602001600020600401600481819054906101000a900463ffffffff1680929190610ad7906116f2565b91906101000a81548163ffffffff021916908363ffffffff160217905550505b600a600160008463ffffffff1663ffffffff16815260200190815260200160002060040160088282829054906101000a900463ffffffff16610b3991906118e2565b92506101000a81548163ffffffff021916908363ffffffff1602179055506001600360003373ffffffffffffffffffffffffffffffffffffffff1673ffffffffffffffffffffffffffffffffffffffff16815260200190815260200160002060008463ffffffff1663ffffffff16815260200190815260200160002060006101000a81548160ff0219169083151502179055505050565b60006001600560009054906101000a900463ffffffff16610bf1919061191c565b905090565b600a81565b600080600080600060011515600260008863ffffffff1663ffffffff16815260200190815260200160002060009054906101000a900460ff16151514610c76576040517f08c379a0000000000000000000000000000000000000000000000000000000008152600401610c6d9061199c565b60405180910390fd5b600160008763ffffffff1663ffffffff16815260200190815260200160002060040160009054906101000a900463ffffffff169450600160008763ffffffff1663ffffffff16815260200190815260200160002060040160049054906101000a900463ffffffff169350600160008763ffffffff1663ffffffff16815260200190815260200160002060020154600160008863ffffffff1663ffffffff16815260200190815260200160002060010154610d309190611820565b421015610d405760019250610d45565b600092505b600160008763ffffffff1663ffffffff16815260200190815260200160002060040160049054906101000a900463ffffffff1663ffffffff16600160008863ffffffff1663ffffffff16815260200190815260200160002060040160009054906101000a900463ffffffff1663ffffffff16118015610e315750600160008763ffffffff1663ffffffff16815260200190815260200160002060000160049054906101000a900473ffffffffffffffffffffffffffffffffffffffff1673ffffffffffffffffffffffffffffffffffffffff163373ffffffffffffffffffffffffffffffffffffffff16145b8015610e7557506000600160008863ffffffff1663ffffffff16815260200190815260200160002060040160089054906101000a900463ffffffff1663ffffffff16115b8015610ecf5750600160008763ffffffff1663ffffffff16815260200190815260200160002060020154600160008863ffffffff1663ffffffff16815260200190815260200160002060010154610ecc9190611820565b42115b15610edd5760019150610ee2565b600091505b600360003373ffffffffffffffffffffffffffffffffffffffff1673ffffffffffffffffffffffffffffffffffffffff16815260200190815260200160002060008763ffffffff1663ffffffff16815260200190815260200160002060009054906101000a900460ff1615905091939590929450565b603c81565b606060011515600260008463ffffffff1663ffffffff16815260200190815260200160002060009054906101000a900460ff16151514610fd2576040517f08c379a0000000000000000000000000000000000000000000000000000000008152600401610fc99061199c565b60405180910390fd5b600160008363ffffffff1663ffffffff1681526020019081526020016000206003018054610fff906119eb565b80601f016020809104026020016040519081016040528092919081815260200182805461102b906119eb565b80156110785780601f1061104d57610100808354040283529160200191611078565b820191906000526020600020905b81548152906001019060200180831161105b57829003601f168201915b50505050509050919050565b604051806101000160405280600063ffffffff168152602001600073ffffffffffffffffffffffffffffffffffffffff168152602001600081526020016000815260200160608152602001600063ffffffff168152602001600063ffffffff168152602001600063ffffffff1681525090565b828054611103906119eb565b90600052602060002090601f016020900481019282611125576000855561116c565b82601f1061113e57805160ff191683800117855561116c565b8280016001018555821561116c579182015b8281111561116b578251825591602001919060010190611150565b5b509050611179919061117d565b5090565b5b8082111561119657600081600090555060010161117e565b5090565b600063ffffffff82169050919050565b6111b38161119a565b82525050565b60006020820190506111ce60008301846111aa565b92915050565b6000604051905090565b600080fd5b600080fd5b600080fd5b600080fd5b6000601f19601f8301169050919050565b7f4e487b7100000000000000000000000000000000000000000000000000000000600052604160045260246000fd5b61123b826111f2565b810181811067ffffffffffffffff8211171561125a57611259611203565b5b80604052505050565b600061126d6111d4565b90506112798282611232565b919050565b600067ffffffffffffffff82111561129957611298611203565b5b6112a2826111f2565b9050602081019050919050565b82818337600083830152505050565b60006112d16112cc8461127e565b611263565b9050828152602081018484840111156112ed576112ec6111ed565b5b6112f88482856112af565b509392505050565b600082601f830112611315576113146111e8565b5b81356113258482602086016112be565b91505092915050565b600060208284031215611344576113436111de565b5b600082013567ffffffffffffffff811115611362576113616111e3565b5b61136e84828501611300565b91505092915050565b6113808161119a565b811461138b57600080fd5b50565b60008135905061139d81611377565b92915050565b6000602082840312156113b9576113b86111de565b5b60006113c78482850161138e565b91505092915050565b600073ffffffffffffffffffffffffffffffffffffffff82169050919050565b6000819050919050565b600061141561141061140b846113d0565b6113f0565b6113d0565b9050919050565b6000611427826113fa565b9050919050565b60006114398261141c565b9050919050565b6114498161142e565b82525050565b60006020820190506114646000830184611440565b92915050565b60008115159050919050565b61147f8161146a565b811461148a57600080fd5b50565b60008135905061149c81611476565b92915050565b600080604083850312156114b9576114b86111de565b5b60006114c78582860161138e565b92505060206114d88582860161148d565b9150509250929050565b6114eb8161146a565b82525050565b600060a08201905061150660008301886111aa565b61151360208301876111aa565b61152060408301866114e2565b61152d60608301856114e2565b61153a60808301846114e2565b9695505050505050565b600081519050919050565b600082825260208201905092915050565b60005b8381101561157e578082015181840152602081019050611563565b8381111561158d576000848401525b50505050565b600061159e82611544565b6115a8818561154f565b93506115b8818560208601611560565b6115c1816111f2565b840191505092915050565b600060208201905081810360008301526115e68184611593565b905092915050565b60006115f9826113d0565b9050919050565b611609816115ee565b82525050565b6000819050919050565b600061163461162f61162a8461119a565b6113f0565b61160f565b9050919050565b61164481611619565b82525050565b600060608201905061165f6000830186611600565b61166c6020830185611600565b611679604083018461163b565b949350505050565b60008151905061169081611476565b92915050565b6000602082840312156116ac576116ab6111de565b5b60006116ba84828501611681565b91505092915050565b7f4e487b7100000000000000000000000000000000000000000000000000000000600052601160045260246000fd5b60006116fd8261119a565b915063ffffffff821415611714576117136116c3565b5b600182019050919050565b7f69736e2774207468652072656365697665720000000000000000000000000000600082015250565b600061175560128361154f565b91506117608261171f565b602082019050919050565b6000602082019050818103600083015261178481611748565b9050919050565b60006040820190506117a06000830185611600565b6117ad602083018461163b565b9392505050565b7f756e61626c6520746f20766f7465000000000000000000000000000000000000600082015250565b60006117ea600e8361154f565b91506117f5826117b4565b602082019050919050565b60006020820190508181036000830152611819816117dd565b9050919050565b600061182b8261160f565b91506118368361160f565b9250827fffffffffffffffffffffffffffffffffffffffffffffffffffffffffffffffff0382111561186b5761186a6116c3565b5b828201905092915050565b7f766f7465206f7574646174650000000000000000000000000000000000000000600082015250565b60006118ac600c8361154f565b91506118b782611876565b602082019050919050565b600060208201905081810360008301526118db8161189f565b9050919050565b60006118ed8261119a565b91506118f88361119a565b92508263ffffffff03821115611911576119106116c3565b5b828201905092915050565b60006119278261119a565b91506119328361119a565b925082821015611945576119446116c3565b5b828203905092915050565b7f70726f706f73616c206861736e27742067656e65726174656400000000000000600082015250565b600061198660198361154f565b915061199182611950565b602082019050919050565b600060208201905081810360008301526119b581611979565b9050919050565b7f4e487b7100000000000000000000000000000000000000000000000000000000600052602260045260246000fd5b60006002820490506001821680611a0357607f821691505b60208210811415611a1757611a166119bc565b5b5091905056fea26469706673582212209fc1a6c08745f3f538581e006b6a502c11eff7fca31bce5f785815525a96d1e164736f6c6343000809003360806040523480156200001157600080fd5b5060405162001a1d38038062001a1d8339818101604052810190620000379190620002c2565b818181600390805190602001906200005192919062000075565b5080600490805190602001906200006a92919062000075565b5050505050620003ac565b828054620000839062000376565b90600052602060002090601f016020900481019282620000a75760008555620000f3565b82601f10620000c257805160ff1916838001178555620000f3565b82800160010185558215620000f3579182015b82811115620000f2578251825591602001919060010190620000d5565b5b50905062000102919062000106565b5090565b5b808211156200012157600081600090555060010162000107565b5090565b6000604051905090565b600080fd5b600080fd5b600080fd5b600080fd5b6000601f19601f8301169050919050565b7f4e487b7100000000000000000000000000000000000000000000000000000000600052604160045260246000fd5b6200018e8262000143565b810181811067ffffffffffffffff82111715620001b057620001af62000154565b5b80604052505050565b6000620001c562000125565b9050620001d3828262000183565b919050565b600067ffffffffffffffff821115620001f657620001f562000154565b5b620002018262000143565b9050602081019050919050565b60005b838110156200022e57808201518184015260208101905062000211565b838111156200023e576000848401525b50505050565b60006200025b6200025584620001d8565b620001b9565b9050828152602081018484840111156200027a57620002796200013e565b5b620002878482856200020e565b509392505050565b600082601f830112620002a757620002a662000139565b5b8151620002b984826020860162000244565b91505092915050565b60008060408385031215620002dc57620002db6200012f565b5b600083015167ffffffffffffffff811115620002fd57620002fc62000134565b5b6200030b858286016200028f565b925050602083015167ffffffffffffffff8111156200032f576200032e62000134565b5b6200033d858286016200028f565b9150509250929050565b7f4e487b7100000000000000000000000000000000000000000000000000000000600052602260045260246000fd5b600060028204905060018216806200038f57607f821691505b60208210811415620003a657620003a562000347565b5b50919050565b61166180620003bc6000396000f3fe608060405234801561001057600080fd5b50600436106100cf5760003560e01c8063395093511161008c578063a457c2d711610066578063a457c2d714610216578063a9059cbb14610246578063dd62ed3e14610276578063e834a834146102a6576100cf565b8063395093511461019857806370a08231146101c857806395d89b41146101f8576100cf565b806306fdde03146100d4578063095ea7b3146100f257806318160ddd1461012257806323b872dd14610140578063313ce567146101705780633884d6351461018e575b600080fd5b6100dc6102c4565b6040516100e99190610e1d565b60405180910390f35b61010c60048036038101906101079190610ed8565b610356565b6040516101199190610f33565b60405180910390f35b61012a610379565b6040516101379190610f5d565b60405180910390f35b61015a60048036038101906101559190610f78565b610383565b6040516101679190610f33565b60405180910390f35b6101786103b2565b6040516101859190610fe7565b60405180910390f35b6101966103bb565b005b6101b260048036038101906101ad9190610ed8565b6104b4565b6040516101bf9190610f33565b60405180910390f35b6101e260048036038101906101dd9190611002565b6104eb565b6040516101ef9190610f5d565b60405180910390f35b610200610533565b60405161020d9190610e1d565b60405180910390f35b610230600480360381019061022b9190610ed8565b6105c5565b60405161023d9190610f33565b60405180910390f35b610260600480360381019061025b9190610ed8565b61063c565b60405161026d9190610f33565b60405180910390f35b610290600480360381019061028b919061102f565b61065f565b60405161029d9190610f5d565b60405180910390f35b6102ae6106e6565b6040516102bb9190610f33565b60405180910390f35b6060600380546102d39061109e565b80601f01602080910402602001604051908101604052809291908181526020018280546102ff9061109e565b801561034c5780601f106103215761010080835404028352916020019161034c565b820191906000526020600020905b81548152906001019060200180831161032f57829003601f168201915b5050505050905090565b60008061036161073a565b905061036e818585610742565b600191505092915050565b6000600254905090565b60008061038e61073a565b905061039b85828561090d565b6103a6858585610999565b60019150509392505050565b60006012905090565b60001515600560003373ffffffffffffffffffffffffffffffffffffffff1673ffffffffffffffffffffffffffffffffffffffff16815260200190815260200160002060009054906101000a900460ff1615151461044e576040517f08c379a000000000000000000000000000000000000000000000000000000000815260040161044590611142565b60405180910390fd5b61045a33612710610c1a565b6001600560003373ffffffffffffffffffffffffffffffffffffffff1673ffffffffffffffffffffffffffffffffffffffff16815260200190815260200160002060006101000a81548160ff021916908315150217905550565b6000806104bf61073a565b90506104e08185856104d1858961065f565b6104db9190611191565b610742565b600191505092915050565b60008060008373ffffffffffffffffffffffffffffffffffffffff1673ffffffffffffffffffffffffffffffffffffffff168152602001908152602001600020549050919050565b6060600480546105429061109e565b80601f016020809104026020016040519081016040528092919081815260200182805461056e9061109e565b80156105bb5780601f10610590576101008083540402835291602001916105bb565b820191906000526020600020905b81548152906001019060200180831161059e57829003601f168201915b5050505050905090565b6000806105d061073a565b905060006105de828661065f565b905083811015610623576040517f08c379a000000000000000000000000000000000000000000000000000000000815260040161061a90611259565b60405180910390fd5b6106308286868403610742565b60019250505092915050565b60008061064761073a565b9050610654818585610999565b600191505092915050565b6000600160008473ffffffffffffffffffffffffffffffffffffffff1673ffffffffffffffffffffffffffffffffffffffff16815260200190815260200160002060008373ffffffffffffffffffffffffffffffffffffffff1673ffffffffffffffffffffffffffffffffffffffff16815260200190815260200160002054905092915050565b6000600560003373ffffffffffffffffffffffffffffffffffffffff1673ffffffffffffffffffffffffffffffffffffffff16815260200190815260200160002060009054906101000a900460ff16905090565b600033905090565b600073ffffffffffffffffffffffffffffffffffffffff168373ffffffffffffffffffffffffffffffffffffffff1614156107b2576040517f08c379a00000000000000000000000000000000000000000000000000000000081526004016107a9906112eb565b60405180910390fd5b600073ffffffffffffffffffffffffffffffffffffffff168273ffffffffffffffffffffffffffffffffffffffff161415610822576040517f08c379a00000000000000000000000000000000000000000000000000000000081526004016108199061137d565b60405180910390fd5b80600160008573ffffffffffffffffffffffffffffffffffffffff1673ffffffffffffffffffffffffffffffffffffffff16815260200190815260200160002060008473ffffffffffffffffffffffffffffffffffffffff1673ffffffffffffffffffffffffffffffffffffffff168152602001908152602001600020819055508173ffffffffffffffffffffffffffffffffffffffff168373ffffffffffffffffffffffffffffffffffffffff167f8c5be1e5ebec7d5bd14f71427d1e84f3dd0314c0f7b2291e5b200ac8c7c3b925836040516109009190610f5d565b60405180910390a3505050565b6000610919848461065f565b90507fffffffffffffffffffffffffffffffffffffffffffffffffffffffffffffffff81146109935781811015610985576040517f08c379a000000000000000000000000000000000000000000000000000000000815260040161097c906113e9565b60405180910390fd5b6109928484848403610742565b5b50505050565b600073ffffffffffffffffffffffffffffffffffffffff168373ffffffffffffffffffffffffffffffffffffffff161415610a09576040517f08c379a0000000000000000000000000000000000000000000000000000000008152600401610a009061147b565b60405180910390fd5b600073ffffffffffffffffffffffffffffffffffffffff168273ffffffffffffffffffffffffffffffffffffffff161415610a79576040517f08c379a0000000000000000000000000000000000000000000000000000000008152600401610a709061150d565b60405180910390fd5b610a84838383610d7a565b60008060008573ffffffffffffffffffffffffffffffffffffffff1673ffffffffffffffffffffffffffffffffffffffff16815260200190815260200160002054905081811015610b0a576040517f08c379a0000000000000000000000000000000000000000000000000000000008152600401610b019061159f565b60405180910390fd5b8181036000808673ffffffffffffffffffffffffffffffffffffffff1673ffffffffffffffffffffffffffffffffffffffff16815260200190815260200160002081905550816000808573ffffffffffffffffffffffffffffffffffffffff1673ffffffffffffffffffffffffffffffffffffffff1681526020019081526020016000206000828254610b9d9190611191565b925050819055508273ffffffffffffffffffffffffffffffffffffffff168473ffffffffffffffffffffffffffffffffffffffff167fddf252ad1be2c89b69c2b068fc378daa952ba7f163c4a11628f55a4df523b3ef84604051610c019190610f5d565b60405180910390a3610c14848484610d7f565b50505050565b600073ffffffffffffffffffffffffffffffffffffffff168273ffffffffffffffffffffffffffffffffffffffff161415610c8a576040517f08c379a0000000000000000000000000000000000000000000000000000000008152600401610c819061160b565b60405180910390fd5b610c9660008383610d7a565b8060026000828254610ca89190611191565b92505081905550806000808473ffffffffffffffffffffffffffffffffffffffff1673ffffffffffffffffffffffffffffffffffffffff1681526020019081526020016000206000828254610cfd9190611191565b925050819055508173ffffffffffffffffffffffffffffffffffffffff16600073ffffffffffffffffffffffffffffffffffffffff167fddf252ad1be2c89b69c2b068fc378daa952ba7f163c4a11628f55a4df523b3ef83604051610d629190610f5d565b60405180910390a3610d7660008383610d7f565b5050565b505050565b505050565b600081519050919050565b600082825260208201905092915050565b60005b83811015610dbe578082015181840152602081019050610da3565b83811115610dcd576000848401525b50505050565b6000601f19601f8301169050919050565b6000610def82610d84565b610df98185610d8f565b9350610e09818560208601610da0565b610e1281610dd3565b840191505092915050565b60006020820190508181036000830152610e378184610de4565b905092915050565b600080fd5b600073ffffffffffffffffffffffffffffffffffffffff82169050919050565b6000610e6f82610e44565b9050919050565b610e7f81610e64565b8114610e8a57600080fd5b50565b600081359050610e9c81610e76565b92915050565b6000819050919050565b610eb581610ea2565b8114610ec057600080fd5b50565b600081359050610ed281610eac565b92915050565b60008060408385031215610eef57610eee610e3f565b5b6000610efd85828601610e8d565b9250506020610f0e85828601610ec3565b9150509250929050565b60008115159050919050565b610f2d81610f18565b82525050565b6000602082019050610f486000830184610f24565b92915050565b610f5781610ea2565b82525050565b6000602082019050610f726000830184610f4e565b92915050565b600080600060608486031215610f9157610f90610e3f565b5b6000610f9f86828701610e8d565b9350506020610fb086828701610e8d565b9250506040610fc186828701610ec3565b9150509250925092565b600060ff82169050919050565b610fe181610fcb565b82525050565b6000602082019050610ffc6000830184610fd8565b92915050565b60006020828403121561101857611017610e3f565b5b600061102684828501610e8d565b91505092915050565b6000806040838503121561104657611045610e3f565b5b600061105485828601610e8d565b925050602061106585828601610e8d565b9150509250929050565b7f4e487b7100000000000000000000000000000000000000000000000000000000600052602260045260246000fd5b600060028204905060018216806110b657607f821691505b602082108114156110ca576110c961106f565b5b50919050565b7f5468697320757365722068617320636c61696d65642061697264726f7020616c60008201527f7265616479000000000000000000000000000000000000000000000000000000602082015250565b600061112c602583610d8f565b9150611137826110d0565b604082019050919050565b6000602082019050818103600083015261115b8161111f565b9050919050565b7f4e487b7100000000000000000000000000000000000000000000000000000000600052601160045260246000fd5b600061119c82610ea2565b91506111a783610ea2565b9250827fffffffffffffffffffffffffffffffffffffffffffffffffffffffffffffffff038211156111dc576111db611162565b5b828201905092915050565b7f45524332303a2064656372656173656420616c6c6f77616e63652062656c6f7760008201527f207a65726f000000000000000000000000000000000000000000000000000000602082015250565b6000611243602583610d8f565b915061124e826111e7565b604082019050919050565b6000602082019050818103600083015261127281611236565b9050919050565b7f45524332303a20617070726f76652066726f6d20746865207a65726f2061646460008201527f7265737300000000000000000000000000000000000000000000000000000000602082015250565b60006112d5602483610d8f565b91506112e082611279565b604082019050919050565b60006020820190508181036000830152611304816112c8565b9050919050565b7f45524332303a20617070726f766520746f20746865207a65726f20616464726560008201527f7373000000000000000000000000000000000000000000000000000000000000602082015250565b6000611367602283610d8f565b91506113728261130b565b604082019050919050565b600060208201905081810360008301526113968161135a565b9050919050565b7f45524332303a20696e73756666696369656e7420616c6c6f77616e6365000000600082015250565b60006113d3601d83610d8f565b91506113de8261139d565b602082019050919050565b60006020820190508181036000830152611402816113c6565b9050919050565b7f45524332303a207472616e736665722066726f6d20746865207a65726f20616460008201527f6472657373000000000000000000000000000000000000000000000000000000602082015250565b6000611465602583610d8f565b915061147082611409565b604082019050919050565b6000602082019050818103600083015261149481611458565b9050919050565b7f45524332303a207472616e7366657220746f20746865207a65726f206164647260008201527f6573730000000000000000000000000000000000000000000000000000000000602082015250565b60006114f7602383610d8f565b91506115028261149b565b604082019050919050565b60006020820190508181036000830152611526816114ea565b9050919050565b7f45524332303a207472616e7366657220616d6f756e742065786365656473206260008201527f616c616e63650000000000000000000000000000000000000000000000000000602082015250565b6000611589602683610d8f565b91506115948261152d565b604082019050919050565b600060208201905081810360008301526115b88161157c565b9050919050565b7f45524332303a206d696e7420746f20746865207a65726f206164647265737300600082015250565b60006115f5601f83610d8f565b9150611600826115bf565b602082019050919050565b60006020820190508181036000830152611624816115e8565b905091905056fea26469706673582212203fda41b2523aed2a833538620fa6fca0c4c61f7196e6c2992d5ab6ec14205a1964736f6c63430008090033",
  "linkReferences": {},
  "deployedLinkReferences": {}
}