{
  "_format": "hh-sol-artifact-1",
  "contractName": "StudentSocietyDAO",
  "sourceName": "contracts/StudentSocietyDAO.sol",
  "abi": [
    {
      "inputs": [],
      "stateMutability": "nonpayable",
      "type": "constructor"
    },
    {
      "anonymous": false,
      "inputs": [
        {
          "indexed": false,
          "internalType": "uint32",
          "name": "proposalIndex",
          "type": "uint32"
        }
      ],
      "name": "ProposalInitiated",
      "type": "event"
    },
    {
      "inputs": [],
      "name": "Index",
      "outputs": [
        {
          "internalType": "uint32",
          "name": "",
          "type": "uint32"
        }
      ],
      "stateMutability": "view",
      "type": "function"
    },
    {
      "inputs": [],
      "name": "ProposalDuration",
      "outputs": [
        {
          "internalType": "uint32",
          "name": "",
          "type": "uint32"
        }
      ],
      "stateMutability": "view",
      "type": "function"
    },
    {
      "inputs": [],
      "name": "ProposalGenerateAmount",
      "outputs": [
        {
          "internalType": "uint32",
          "name": "",
          "type": "uint32"
        }
      ],
      "stateMutability": "view",
      "type": "function"
    },
    {
      "inputs": [
        {
          "internalType": "uint32",
          "name": "index",
          "type": "uint32"
        }
      ],
      "name": "ReceiveReward",
      "outputs": [],
      "stateMutability": "payable",
      "type": "function"
    },
    {
      "inputs": [],
      "name": "VoteAmount",
      "outputs": [
        {
          "internalType": "uint32",
          "name": "",
          "type": "uint32"
        }
      ],
      "stateMutability": "view",
      "type": "function"
    },
    {
      "inputs": [
        {
          "internalType": "string",
          "name": "proposalname",
          "type": "string"
        }
      ],
      "name": "generateproposal",
      "outputs": [],
      "stateMutability": "payable",
      "type": "function"
    },
    {
      "inputs": [],
      "name": "getindex",
      "outputs": [
        {
          "internalType": "uint32",
          "name": "index",
          "type": "uint32"
        }
      ],
      "stateMutability": "view",
      "type": "function"
    },
    {
      "inputs": [
        {
          "internalType": "uint32",
          "name": "index",
          "type": "uint32"
        }
      ],
      "name": "getproposalname",
      "outputs": [
        {
          "internalType": "string",
          "name": "name",
          "type": "string"
        }
      ],
      "stateMutability": "view",
      "type": "function"
    },
    {
      "inputs": [
        {
          "internalType": "uint32",
          "name": "index",
          "type": "uint32"
        }
      ],
      "name": "getproposalstatus",
      "outputs": [
        {
          "internalType": "uint32",
          "name": "agree",
          "type": "uint32"
        },
        {
          "internalType": "uint32",
          "name": "disagree",
          "type": "uint32"
        },
        {
          "internalType": "bool",
          "name": "voteAvailable",
          "type": "bool"
        },
        {
          "internalType": "bool",
          "name": "ClaimAvailable",
          "type": "bool"
        },
        {
          "internalType": "bool",
          "name": "sendervoted",
          "type": "bool"
        }
      ],
      "stateMutability": "view",
      "type": "function"
    },
    {
      "inputs": [],
      "name": "myERC20",
      "outputs": [
        {
          "internalType": "contract MyERC20",
          "name": "",
          "type": "address"
        }
      ],
      "stateMutability": "view",
      "type": "function"
    },
    {
      "inputs": [
        {
          "internalType": "uint32",
          "name": "index",
          "type": "uint32"
        },
        {
          "internalType": "bool",
          "name": "Vote",
          "type": "bool"
        }
      ],
      "name": "vote",
      "outputs": [],
      "stateMutability": "payable",
      "type": "function"
    }
  ],
  "bytecode": "0x60806040526001600560006101000a81548163ffffffff021916908363ffffffff1602179055503480156200003357600080fd5b506040516200004290620000b0565b6200004d906200016f565b604051809103906000f0801580156200006a573d6000803e3d6000fd5b506000806101000a81548173ffffffffffffffffffffffffffffffffffffffff021916908373ffffffffffffffffffffffffffffffffffffffff160217905550620001a6565b6119908062001b6683390190565b600082825260208201905092915050565b7f5a4a55546f6b656e000000000000000000000000000000000000000000000000600082015250565b600062000107600883620000be565b91506200011482620000cf565b602082019050919050565b7f5a4a55546f6b656e53796d626f6c000000000000000000000000000000000000600082015250565b600062000157600e83620000be565b915062000164826200011f565b602082019050919050565b600060408201905081810360008301526200018a81620000f8565b905081810360208301526200019f8162000148565b9050919050565b6119b080620001b66000396000f3fe60806040526004361061009c5760003560e01c806377cfd5511161006457806377cfd5511461015a578063879647e214610176578063ad32016c146101a1578063af512359146101cc578063b7751a8e1461020d578063d356d9d4146102385761009c565b806306ab9c92146100a157806314f3c5be146100cc5780634605c1d4146100e85780635ace4d96146101045780636d3739c41461012f575b600080fd5b3480156100ad57600080fd5b506100b6610275565b6040516100c39190611182565b60405180910390f35b6100e660048036038101906100e191906112f7565b61027b565b005b61010260048036038101906100fd919061136c565b6105df565b005b34801561011057600080fd5b506101196107f6565b6040516101269190611182565b60405180910390f35b34801561013b57600080fd5b5061014461080c565b6040516101519190611418565b60405180910390f35b610174600480360381019061016f919061146b565b610830565b005b34801561018257600080fd5b5061018b610b99565b6040516101989190611182565b60405180910390f35b3480156101ad57600080fd5b506101b6610bbf565b6040516101c39190611182565b60405180910390f35b3480156101d857600080fd5b506101f360048036038101906101ee919061136c565b610bc4565b6040516102049594939291906114ba565b60405180910390f35b34801561021957600080fd5b50610222610f21565b60405161022f9190611182565b60405180910390f35b34801561024457600080fd5b5061025f600480360381019061025a919061136c565b610f26565b60405161026c9190611595565b60405180910390f35b6103e881565b60008054906101000a900473ffffffffffffffffffffffffffffffffffffffff1673ffffffffffffffffffffffffffffffffffffffff166323b872dd33306103e86040518463ffffffff1660e01b81526004016102da93929190611613565b602060405180830381600087803b1580156102f457600080fd5b505af1158015610308573d6000803e3d6000fd5b505050506040513d601f19601f8201168201806040525081019061032c919061165f565b5061033561104d565b600560009054906101000a900463ffffffff16816000019063ffffffff16908163ffffffff168152505033816020019073ffffffffffffffffffffffffffffffffffffffff16908173ffffffffffffffffffffffffffffffffffffffff168152505042816040018181525050600a63ffffffff1681606001818152505081816080018190525060008160a0019063ffffffff16908163ffffffff168152505060008160c0019063ffffffff16908163ffffffff16815250506103e88160e0019063ffffffff16908163ffffffff1681525050600160026000600560009054906101000a900463ffffffff1663ffffffff1663ffffffff16815260200190815260200160002060006101000a81548160ff0219169083151502179055508060016000600560009054906101000a900463ffffffff1663ffffffff1663ffffffff16815260200190815260200160002060008201518160000160006101000a81548163ffffffff021916908363ffffffff16021790555060208201518160000160046101000a81548173ffffffffffffffffffffffffffffffffffffffff021916908373ffffffffffffffffffffffffffffffffffffffff160217905550604082015181600101556060820151816002015560808201518160030190805190602001906105219291906110c0565b5060a08201518160040160006101000a81548163ffffffff021916908363ffffffff16021790555060c08201518160040160046101000a81548163ffffffff021916908363ffffffff16021790555060e08201518160040160086101000a81548163ffffffff021916908363ffffffff1602179055509050506005600081819054906101000a900463ffffffff16809291906105bc906116bb565b91906101000a81548163ffffffff021916908363ffffffff160217905550505050565b600160008263ffffffff1663ffffffff16815260200190815260200160002060000160049054906101000a900473ffffffffffffffffffffffffffffffffffffffff1673ffffffffffffffffffffffffffffffffffffffff163373ffffffffffffffffffffffffffffffffffffffff161461068f576040517f08c379a000000000000000000000000000000000000000000000000000000000815260040161068690611734565b60405180910390fd5b60008054906101000a900473ffffffffffffffffffffffffffffffffffffffff1673ffffffffffffffffffffffffffffffffffffffff1663a9059cbb600160008463ffffffff1663ffffffff16815260200190815260200160002060000160049054906101000a900473ffffffffffffffffffffffffffffffffffffffff16600160008563ffffffff1663ffffffff16815260200190815260200160002060040160089054906101000a900463ffffffff166040518363ffffffff1660e01b815260040161075e929190611754565b602060405180830381600087803b15801561077857600080fd5b505af115801561078c573d6000803e3d6000fd5b505050506040513d601f19601f820116820180604052508101906107b0919061165f565b506000600160008363ffffffff1663ffffffff16815260200190815260200160002060040160086101000a81548163ffffffff021916908363ffffffff16021790555050565b600560009054906101000a900463ffffffff1681565b60008054906101000a900473ffffffffffffffffffffffffffffffffffffffff1681565b60001515600360003373ffffffffffffffffffffffffffffffffffffffff1673ffffffffffffffffffffffffffffffffffffffff16815260200190815260200160002060008463ffffffff1663ffffffff16815260200190815260200160002060009054906101000a900460ff1615151480156108fb5750600160008363ffffffff1663ffffffff16815260200190815260200160002060020154600160008463ffffffff1663ffffffff168152602001908152602001600020600101546108f8919061177d565b42105b61093a576040517f08c379a00000000000000000000000000000000000000000000000000000000081526004016109319061181f565b60405180910390fd5b60008054906101000a900473ffffffffffffffffffffffffffffffffffffffff1673ffffffffffffffffffffffffffffffffffffffff166323b872dd3330600a6040518463ffffffff1660e01b815260040161099893929190611613565b602060405180830381600087803b1580156109b257600080fd5b505af11580156109c6573d6000803e3d6000fd5b505050506040513d601f19601f820116820180604052508101906109ea919061165f565b50600115158115151415610a5e57600160008363ffffffff1663ffffffff168152602001908152602001600020600401600081819054906101000a900463ffffffff1680929190610a3a906116bb565b91906101000a81548163ffffffff021916908363ffffffff16021790555050610ac0565b600160008363ffffffff1663ffffffff168152602001908152602001600020600401600481819054906101000a900463ffffffff1680929190610aa0906116bb565b91906101000a81548163ffffffff021916908363ffffffff160217905550505b600a600160008463ffffffff1663ffffffff16815260200190815260200160002060040160088282829054906101000a900463ffffffff16610b02919061183f565b92506101000a81548163ffffffff021916908363ffffffff1602179055506001600360003373ffffffffffffffffffffffffffffffffffffffff1673ffffffffffffffffffffffffffffffffffffffff16815260200190815260200160002060008463ffffffff1663ffffffff16815260200190815260200160002060006101000a81548160ff0219169083151502179055505050565b60006001600560009054906101000a900463ffffffff16610bba9190611879565b905090565b600a81565b600080600080600060011515600260008863ffffffff1663ffffffff16815260200190815260200160002060009054906101000a900460ff16151514610c3f576040517f08c379a0000000000000000000000000000000000000000000000000000000008152600401610c36906118f9565b60405180910390fd5b600160008763ffffffff1663ffffffff16815260200190815260200160002060040160009054906101000a900463ffffffff169450600160008763ffffffff1663ffffffff16815260200190815260200160002060040160049054906101000a900463ffffffff169350600160008763ffffffff1663ffffffff16815260200190815260200160002060020154600160008863ffffffff1663ffffffff16815260200190815260200160002060010154610cf9919061177d565b421015610d095760019250610d0e565b600092505b600160008763ffffffff1663ffffffff16815260200190815260200160002060040160049054906101000a900463ffffffff1663ffffffff16600160008863ffffffff1663ffffffff16815260200190815260200160002060040160009054906101000a900463ffffffff1663ffffffff16118015610dfa5750600160008763ffffffff1663ffffffff16815260200190815260200160002060000160049054906101000a900473ffffffffffffffffffffffffffffffffffffffff1673ffffffffffffffffffffffffffffffffffffffff163373ffffffffffffffffffffffffffffffffffffffff16145b8015610e3e57506000600160008863ffffffff1663ffffffff16815260200190815260200160002060040160089054906101000a900463ffffffff1663ffffffff16115b8015610e985750600160008763ffffffff1663ffffffff16815260200190815260200160002060020154600160008863ffffffff1663ffffffff16815260200190815260200160002060010154610e95919061177d565b42115b15610ea65760019150610eab565b600091505b600360003373ffffffffffffffffffffffffffffffffffffffff1673ffffffffffffffffffffffffffffffffffffffff16815260200190815260200160002060008763ffffffff1663ffffffff16815260200190815260200160002060009054906101000a900460ff1615905091939590929450565b600a81565b606060011515600260008463ffffffff1663ffffffff16815260200190815260200160002060009054906101000a900460ff16151514610f9b576040517f08c379a0000000000000000000000000000000000000000000000000000000008152600401610f92906118f9565b60405180910390fd5b600160008363ffffffff1663ffffffff1681526020019081526020016000206003018054610fc890611948565b80601f0160208091040260200160405190810160405280929190818152602001828054610ff490611948565b80156110415780601f1061101657610100808354040283529160200191611041565b820191906000526020600020905b81548152906001019060200180831161102457829003601f168201915b50505050509050919050565b604051806101000160405280600063ffffffff168152602001600073ffffffffffffffffffffffffffffffffffffffff168152602001600081526020016000815260200160608152602001600063ffffffff168152602001600063ffffffff168152602001600063ffffffff1681525090565b8280546110cc90611948565b90600052602060002090601f0160209004810192826110ee5760008555611135565b82601f1061110757805160ff1916838001178555611135565b82800160010185558215611135579182015b82811115611134578251825591602001919060010190611119565b5b5090506111429190611146565b5090565b5b8082111561115f576000816000905550600101611147565b5090565b600063ffffffff82169050919050565b61117c81611163565b82525050565b60006020820190506111976000830184611173565b92915050565b6000604051905090565b600080fd5b600080fd5b600080fd5b600080fd5b6000601f19601f8301169050919050565b7f4e487b7100000000000000000000000000000000000000000000000000000000600052604160045260246000fd5b611204826111bb565b810181811067ffffffffffffffff82111715611223576112226111cc565b5b80604052505050565b600061123661119d565b905061124282826111fb565b919050565b600067ffffffffffffffff821115611262576112616111cc565b5b61126b826111bb565b9050602081019050919050565b82818337600083830152505050565b600061129a61129584611247565b61122c565b9050828152602081018484840111156112b6576112b56111b6565b5b6112c1848285611278565b509392505050565b600082601f8301126112de576112dd6111b1565b5b81356112ee848260208601611287565b91505092915050565b60006020828403121561130d5761130c6111a7565b5b600082013567ffffffffffffffff81111561132b5761132a6111ac565b5b611337848285016112c9565b91505092915050565b61134981611163565b811461135457600080fd5b50565b60008135905061136681611340565b92915050565b600060208284031215611382576113816111a7565b5b600061139084828501611357565b91505092915050565b600073ffffffffffffffffffffffffffffffffffffffff82169050919050565b6000819050919050565b60006113de6113d96113d484611399565b6113b9565b611399565b9050919050565b60006113f0826113c3565b9050919050565b6000611402826113e5565b9050919050565b611412816113f7565b82525050565b600060208201905061142d6000830184611409565b92915050565b60008115159050919050565b61144881611433565b811461145357600080fd5b50565b6000813590506114658161143f565b92915050565b60008060408385031215611482576114816111a7565b5b600061149085828601611357565b92505060206114a185828601611456565b9150509250929050565b6114b481611433565b82525050565b600060a0820190506114cf6000830188611173565b6114dc6020830187611173565b6114e960408301866114ab565b6114f660608301856114ab565b61150360808301846114ab565b9695505050505050565b600081519050919050565b600082825260208201905092915050565b60005b8381101561154757808201518184015260208101905061152c565b83811115611556576000848401525b50505050565b60006115678261150d565b6115718185611518565b9350611581818560208601611529565b61158a816111bb565b840191505092915050565b600060208201905081810360008301526115af818461155c565b905092915050565b60006115c282611399565b9050919050565b6115d2816115b7565b82525050565b6000819050919050565b60006115fd6115f86115f384611163565b6113b9565b6115d8565b9050919050565b61160d816115e2565b82525050565b600060608201905061162860008301866115c9565b61163560208301856115c9565b6116426040830184611604565b949350505050565b6000815190506116598161143f565b92915050565b600060208284031215611675576116746111a7565b5b60006116838482850161164a565b91505092915050565b7f4e487b7100000000000000000000000000000000000000000000000000000000600052601160045260246000fd5b60006116c682611163565b915063ffffffff8214156116dd576116dc61168c565b5b600182019050919050565b7f69736e2774207468652072656365697665720000000000000000000000000000600082015250565b600061171e601283611518565b9150611729826116e8565b602082019050919050565b6000602082019050818103600083015261174d81611711565b9050919050565b600060408201905061176960008301856115c9565b6117766020830184611604565b9392505050565b6000611788826115d8565b9150611793836115d8565b9250827fffffffffffffffffffffffffffffffffffffffffffffffffffffffffffffffff038211156117c8576117c761168c565b5b828201905092915050565b7f766f7465206f7574646174650000000000000000000000000000000000000000600082015250565b6000611809600c83611518565b9150611814826117d3565b602082019050919050565b60006020820190508181036000830152611838816117fc565b9050919050565b600061184a82611163565b915061185583611163565b92508263ffffffff0382111561186e5761186d61168c565b5b828201905092915050565b600061188482611163565b915061188f83611163565b9250828210156118a2576118a161168c565b5b828203905092915050565b7f70726f706f73616c206861736e27742067656e65726174656400000000000000600082015250565b60006118e3601983611518565b91506118ee826118ad565b602082019050919050565b60006020820190508181036000830152611912816118d6565b9050919050565b7f4e487b7100000000000000000000000000000000000000000000000000000000600052602260045260246000fd5b6000600282049050600182168061196057607f821691505b6020821081141561197457611973611919565b5b5091905056fea26469706673582212207e71b972e2cd8e57664188544563b9062ac733c0ab6e8bd6547ef13207ef124164736f6c6343000809003360806040523480156200001157600080fd5b5060405162001990380380620019908339818101604052810190620000379190620002c2565b818181600390805190602001906200005192919062000075565b5080600490805190602001906200006a92919062000075565b5050505050620003ac565b828054620000839062000376565b90600052602060002090601f016020900481019282620000a75760008555620000f3565b82601f10620000c257805160ff1916838001178555620000f3565b82800160010185558215620000f3579182015b82811115620000f2578251825591602001919060010190620000d5565b5b50905062000102919062000106565b5090565b5b808211156200012157600081600090555060010162000107565b5090565b6000604051905090565b600080fd5b600080fd5b600080fd5b600080fd5b6000601f19601f8301169050919050565b7f4e487b7100000000000000000000000000000000000000000000000000000000600052604160045260246000fd5b6200018e8262000143565b810181811067ffffffffffffffff82111715620001b057620001af62000154565b5b80604052505050565b6000620001c562000125565b9050620001d3828262000183565b919050565b600067ffffffffffffffff821115620001f657620001f562000154565b5b620002018262000143565b9050602081019050919050565b60005b838110156200022e57808201518184015260208101905062000211565b838111156200023e576000848401525b50505050565b60006200025b6200025584620001d8565b620001b9565b9050828152602081018484840111156200027a57620002796200013e565b5b620002878482856200020e565b509392505050565b600082601f830112620002a757620002a662000139565b5b8151620002b984826020860162000244565b91505092915050565b60008060408385031215620002dc57620002db6200012f565b5b600083015167ffffffffffffffff811115620002fd57620002fc62000134565b5b6200030b858286016200028f565b925050602083015167ffffffffffffffff8111156200032f576200032e62000134565b5b6200033d858286016200028f565b9150509250929050565b7f4e487b7100000000000000000000000000000000000000000000000000000000600052602260045260246000fd5b600060028204905060018216806200038f57607f821691505b60208210811415620003a657620003a562000347565b5b50919050565b6115d480620003bc6000396000f3fe608060405234801561001057600080fd5b50600436106100b45760003560e01c80633950935111610071578063395093511461017d57806370a08231146101ad57806395d89b41146101dd578063a457c2d7146101fb578063a9059cbb1461022b578063dd62ed3e1461025b576100b4565b806306fdde03146100b9578063095ea7b3146100d757806318160ddd1461010757806323b872dd14610125578063313ce567146101555780633884d63514610173575b600080fd5b6100c161028b565b6040516100ce9190610d90565b60405180910390f35b6100f160048036038101906100ec9190610e4b565b61031d565b6040516100fe9190610ea6565b60405180910390f35b61010f610340565b60405161011c9190610ed0565b60405180910390f35b61013f600480360381019061013a9190610eeb565b61034a565b60405161014c9190610ea6565b60405180910390f35b61015d610379565b60405161016a9190610f5a565b60405180910390f35b61017b610382565b005b61019760048036038101906101929190610e4b565b61047b565b6040516101a49190610ea6565b60405180910390f35b6101c760048036038101906101c29190610f75565b6104b2565b6040516101d49190610ed0565b60405180910390f35b6101e56104fa565b6040516101f29190610d90565b60405180910390f35b61021560048036038101906102109190610e4b565b61058c565b6040516102229190610ea6565b60405180910390f35b61024560048036038101906102409190610e4b565b610603565b6040516102529190610ea6565b60405180910390f35b61027560048036038101906102709190610fa2565b610626565b6040516102829190610ed0565b60405180910390f35b60606003805461029a90611011565b80601f01602080910402602001604051908101604052809291908181526020018280546102c690611011565b80156103135780601f106102e857610100808354040283529160200191610313565b820191906000526020600020905b8154815290600101906020018083116102f657829003601f168201915b5050505050905090565b6000806103286106ad565b90506103358185856106b5565b600191505092915050565b6000600254905090565b6000806103556106ad565b9050610362858285610880565b61036d85858561090c565b60019150509392505050565b60006012905090565b60001515600560003373ffffffffffffffffffffffffffffffffffffffff1673ffffffffffffffffffffffffffffffffffffffff16815260200190815260200160002060009054906101000a900460ff16151514610415576040517f08c379a000000000000000000000000000000000000000000000000000000000815260040161040c906110b5565b60405180910390fd5b61042133612710610b8d565b6001600560003373ffffffffffffffffffffffffffffffffffffffff1673ffffffffffffffffffffffffffffffffffffffff16815260200190815260200160002060006101000a81548160ff021916908315150217905550565b6000806104866106ad565b90506104a78185856104988589610626565b6104a29190611104565b6106b5565b600191505092915050565b60008060008373ffffffffffffffffffffffffffffffffffffffff1673ffffffffffffffffffffffffffffffffffffffff168152602001908152602001600020549050919050565b60606004805461050990611011565b80601f016020809104026020016040519081016040528092919081815260200182805461053590611011565b80156105825780601f1061055757610100808354040283529160200191610582565b820191906000526020600020905b81548152906001019060200180831161056557829003601f168201915b5050505050905090565b6000806105976106ad565b905060006105a58286610626565b9050838110156105ea576040517f08c379a00000000000000000000000000000000000000000000000000000000081526004016105e1906111cc565b60405180910390fd5b6105f782868684036106b5565b60019250505092915050565b60008061060e6106ad565b905061061b81858561090c565b600191505092915050565b6000600160008473ffffffffffffffffffffffffffffffffffffffff1673ffffffffffffffffffffffffffffffffffffffff16815260200190815260200160002060008373ffffffffffffffffffffffffffffffffffffffff1673ffffffffffffffffffffffffffffffffffffffff16815260200190815260200160002054905092915050565b600033905090565b600073ffffffffffffffffffffffffffffffffffffffff168373ffffffffffffffffffffffffffffffffffffffff161415610725576040517f08c379a000000000000000000000000000000000000000000000000000000000815260040161071c9061125e565b60405180910390fd5b600073ffffffffffffffffffffffffffffffffffffffff168273ffffffffffffffffffffffffffffffffffffffff161415610795576040517f08c379a000000000000000000000000000000000000000000000000000000000815260040161078c906112f0565b60405180910390fd5b80600160008573ffffffffffffffffffffffffffffffffffffffff1673ffffffffffffffffffffffffffffffffffffffff16815260200190815260200160002060008473ffffffffffffffffffffffffffffffffffffffff1673ffffffffffffffffffffffffffffffffffffffff168152602001908152602001600020819055508173ffffffffffffffffffffffffffffffffffffffff168373ffffffffffffffffffffffffffffffffffffffff167f8c5be1e5ebec7d5bd14f71427d1e84f3dd0314c0f7b2291e5b200ac8c7c3b925836040516108739190610ed0565b60405180910390a3505050565b600061088c8484610626565b90507fffffffffffffffffffffffffffffffffffffffffffffffffffffffffffffffff811461090657818110156108f8576040517f08c379a00000000000000000000000000000000000000000000000000000000081526004016108ef9061135c565b60405180910390fd5b61090584848484036106b5565b5b50505050565b600073ffffffffffffffffffffffffffffffffffffffff168373ffffffffffffffffffffffffffffffffffffffff16141561097c576040517f08c379a0000000000000000000000000000000000000000000000000000000008152600401610973906113ee565b60405180910390fd5b600073ffffffffffffffffffffffffffffffffffffffff168273ffffffffffffffffffffffffffffffffffffffff1614156109ec576040517f08c379a00000000000000000000000000000000000000000000000000000000081526004016109e390611480565b60405180910390fd5b6109f7838383610ced565b60008060008573ffffffffffffffffffffffffffffffffffffffff1673ffffffffffffffffffffffffffffffffffffffff16815260200190815260200160002054905081811015610a7d576040517f08c379a0000000000000000000000000000000000000000000000000000000008152600401610a7490611512565b60405180910390fd5b8181036000808673ffffffffffffffffffffffffffffffffffffffff1673ffffffffffffffffffffffffffffffffffffffff16815260200190815260200160002081905550816000808573ffffffffffffffffffffffffffffffffffffffff1673ffffffffffffffffffffffffffffffffffffffff1681526020019081526020016000206000828254610b109190611104565b925050819055508273ffffffffffffffffffffffffffffffffffffffff168473ffffffffffffffffffffffffffffffffffffffff167fddf252ad1be2c89b69c2b068fc378daa952ba7f163c4a11628f55a4df523b3ef84604051610b749190610ed0565b60405180910390a3610b87848484610cf2565b50505050565b600073ffffffffffffffffffffffffffffffffffffffff168273ffffffffffffffffffffffffffffffffffffffff161415610bfd576040517f08c379a0000000000000000000000000000000000000000000000000000000008152600401610bf49061157e565b60405180910390fd5b610c0960008383610ced565b8060026000828254610c1b9190611104565b92505081905550806000808473ffffffffffffffffffffffffffffffffffffffff1673ffffffffffffffffffffffffffffffffffffffff1681526020019081526020016000206000828254610c709190611104565b925050819055508173ffffffffffffffffffffffffffffffffffffffff16600073ffffffffffffffffffffffffffffffffffffffff167fddf252ad1be2c89b69c2b068fc378daa952ba7f163c4a11628f55a4df523b3ef83604051610cd59190610ed0565b60405180910390a3610ce960008383610cf2565b5050565b505050565b505050565b600081519050919050565b600082825260208201905092915050565b60005b83811015610d31578082015181840152602081019050610d16565b83811115610d40576000848401525b50505050565b6000601f19601f8301169050919050565b6000610d6282610cf7565b610d6c8185610d02565b9350610d7c818560208601610d13565b610d8581610d46565b840191505092915050565b60006020820190508181036000830152610daa8184610d57565b905092915050565b600080fd5b600073ffffffffffffffffffffffffffffffffffffffff82169050919050565b6000610de282610db7565b9050919050565b610df281610dd7565b8114610dfd57600080fd5b50565b600081359050610e0f81610de9565b92915050565b6000819050919050565b610e2881610e15565b8114610e3357600080fd5b50565b600081359050610e4581610e1f565b92915050565b60008060408385031215610e6257610e61610db2565b5b6000610e7085828601610e00565b9250506020610e8185828601610e36565b9150509250929050565b60008115159050919050565b610ea081610e8b565b82525050565b6000602082019050610ebb6000830184610e97565b92915050565b610eca81610e15565b82525050565b6000602082019050610ee56000830184610ec1565b92915050565b600080600060608486031215610f0457610f03610db2565b5b6000610f1286828701610e00565b9350506020610f2386828701610e00565b9250506040610f3486828701610e36565b9150509250925092565b600060ff82169050919050565b610f5481610f3e565b82525050565b6000602082019050610f6f6000830184610f4b565b92915050565b600060208284031215610f8b57610f8a610db2565b5b6000610f9984828501610e00565b91505092915050565b60008060408385031215610fb957610fb8610db2565b5b6000610fc785828601610e00565b9250506020610fd885828601610e00565b9150509250929050565b7f4e487b7100000000000000000000000000000000000000000000000000000000600052602260045260246000fd5b6000600282049050600182168061102957607f821691505b6020821081141561103d5761103c610fe2565b5b50919050565b7f5468697320757365722068617320636c61696d65642061697264726f7020616c60008201527f7265616479000000000000000000000000000000000000000000000000000000602082015250565b600061109f602583610d02565b91506110aa82611043565b604082019050919050565b600060208201905081810360008301526110ce81611092565b9050919050565b7f4e487b7100000000000000000000000000000000000000000000000000000000600052601160045260246000fd5b600061110f82610e15565b915061111a83610e15565b9250827fffffffffffffffffffffffffffffffffffffffffffffffffffffffffffffffff0382111561114f5761114e6110d5565b5b828201905092915050565b7f45524332303a2064656372656173656420616c6c6f77616e63652062656c6f7760008201527f207a65726f000000000000000000000000000000000000000000000000000000602082015250565b60006111b6602583610d02565b91506111c18261115a565b604082019050919050565b600060208201905081810360008301526111e5816111a9565b9050919050565b7f45524332303a20617070726f76652066726f6d20746865207a65726f2061646460008201527f7265737300000000000000000000000000000000000000000000000000000000602082015250565b6000611248602483610d02565b9150611253826111ec565b604082019050919050565b600060208201905081810360008301526112778161123b565b9050919050565b7f45524332303a20617070726f766520746f20746865207a65726f20616464726560008201527f7373000000000000000000000000000000000000000000000000000000000000602082015250565b60006112da602283610d02565b91506112e58261127e565b604082019050919050565b60006020820190508181036000830152611309816112cd565b9050919050565b7f45524332303a20696e73756666696369656e7420616c6c6f77616e6365000000600082015250565b6000611346601d83610d02565b915061135182611310565b602082019050919050565b6000602082019050818103600083015261137581611339565b9050919050565b7f45524332303a207472616e736665722066726f6d20746865207a65726f20616460008201527f6472657373000000000000000000000000000000000000000000000000000000602082015250565b60006113d8602583610d02565b91506113e38261137c565b604082019050919050565b60006020820190508181036000830152611407816113cb565b9050919050565b7f45524332303a207472616e7366657220746f20746865207a65726f206164647260008201527f6573730000000000000000000000000000000000000000000000000000000000602082015250565b600061146a602383610d02565b91506114758261140e565b604082019050919050565b600060208201905081810360008301526114998161145d565b9050919050565b7f45524332303a207472616e7366657220616d6f756e742065786365656473206260008201527f616c616e63650000000000000000000000000000000000000000000000000000602082015250565b60006114fc602683610d02565b9150611507826114a0565b604082019050919050565b6000602082019050818103600083015261152b816114ef565b9050919050565b7f45524332303a206d696e7420746f20746865207a65726f206164647265737300600082015250565b6000611568601f83610d02565b915061157382611532565b602082019050919050565b600060208201905081810360008301526115978161155b565b905091905056fea264697066735822122090662b99f51775a1c1ddd2c9678c536aec99704d904b18ab9576aebf94d51c7364736f6c63430008090033",
  "linkReferences": {},
  "deployedLinkReferences": {}
}